:020000040800F2
:1000000000E2002085020008C952000825420008CD
:1000100051520008F90B0008C165000800000000FB
:10002000000000000000000000000000A501000822
:10003000F90D00080000000001020008295C00081A
:100040009F0200089F0200089F0200089F0200080C
:100050009F0200089F020008FD0D00089F02000893
:100060009F0200089F0200089F0200089F020008EC
:100070009F020008850C0008910C00089D0C0008E8
:10008000A90C0008B50C00089F0200089F02000898
:100090009F0200089F0200089F0200089F020008BC
:1000A0009F0200089F0200089F0200089F020008AC
:1000B0009F02000800000000000000009F020008EE
:1000C0009F0200089F0200089F0200089F0200088C
:1000D0009F02000821650008716500089F02000862
:1000E000250E000875540008000000000000000004
:1000F0000000000000000000000000000000000000
:10010000000000009F020008000000009F0200089D
:100110000000000000000000315D00083D5D0008A7
:100120009F0200089F0200089F0200089F0200082B
:100130009F02000800000000000000000000000016
:100140009F0200089F0200089F02000800000000B4
:100150009F0200089F0200089F0200089F020008FB
:100160009F0200089F0200089F0200080000000094
:100170009F0200089F02000800000000000000002D
:100180009F0200089F0200089F020008DFF810D0BD
:1001900000F0D6FB0048004741770108AFF300802C
:1001A00000E200202C4B1968086800F05AB880F370
:1001B0000988BFF36F8F4FF0000080F311887047FC
:1001C0000000000008480068006880F308884FF0CD
:1001D000000080F3148862B661B6BFF34F8FBFF39F
:1001E0006F8F00DF00BF00BF08ED00E0DFF80C00FC
:1001F000016841F470010160704700BF88ED00E0C4
:10020000EFF30980BFF36F8F134B1A681EF0100FC6
:1002100008BF20ED108A20E9F04F106009B44FF0BC
:10022000500080F31188BFF34F8FBFF36F8F19F029
:100230009BFE4FF0000080F3118809BC1968086824
:1002400000F014B81EF0100F08BF00F014B880F3CF
:100250000988BFF36F8F704768010020EFF30580B6
:10026000704730C8B0E8C04FFFF7A1BF30C8B0E852
:10027000C04FFFF7E7BFB0EC088AB0EC08CAFFF741
:10028000E6BF00000648804706480047FEE7FEE755
:10029000FEE7FEE7FEE7FEE7FEE7FEE7FEE7FEE736
:1002A000ED5C00088D0100082DE9F05F0546002097
:1002B00092469B4688460646814640241BE02846D7
:1002C00041464746224600F08CFA53465A46C01A29
:1002D000914110D311461846224600F073FA2D1AA8
:1002E00067EB01084F4622460120002100F06AFA20
:1002F00017EB00094E41201EA4F10104DFDC484643
:1003000031462A46434600F000B830BCBDE8C09FE5
:100310002DE9F0410024061B254671F1000605DA9F
:1003200001240027D0EB070067EB0101161E73F1D3
:10033000000605DA0027D2EB0702012567EB03036D
:10034000FFF7B2FF86460E4617469C46AC4204D0E5
:100350000025D0EB050E65EB010624B10020D2EBA1
:10036000000760EB030C704631463A466346BDE831
:10037000F08140EA01039B0703D009E008C9121F7E
:1003800008C0042AFAD203E011F8013B00F8013B4F
:10039000521EF9D27047D2B201E000F8012B491E7B
:1003A000FBD270470022F6E710B513460A46044612
:1003B0001946FFF7F0FF204610BD421C10F8011B44
:1003C0000029FBD1801A704730B50446002003464F
:1003D00000E05B1C934203D2E05CCD5C401BF8D094
:1003E00030BD034611F8012B00F8012B002AF9D18A
:1003F000184670472DE9FE4F804681EA0300C00F82
:100400000C46009021F0004123F00045B8EB0200BB
:10041000A94105D24046214690461C460B4602465D
:1004200023F00040104347D0270DC7F30A00C3F361
:100430000A510290401A019040286BDAC3F313006E
:1004400040F4801B0098924620B10023D2EB030AAF
:1004500063EB0B0B01985946C0F14002504600F087
:10046000B1F906460D4650465946019A00F0C9F9C1
:1004700010EB08006141002487EA115284EAE77317
:100480001A4340D0009A62B3019A012A4FEA0752F8
:1004900015DC001B61EB02014FF0004202EA07523B
:1004A000CDE90042001C41F5801132462B4600F098
:1004B000C9F903B000F045B840462146F9E7001BF2
:1004C00061EB0201001C41F5801300185B4120180C
:1004D000A2F5001747EB030140EAD570B6196D414C
:1004E00011E06D084FEA360645EAC0754FEA07523B
:1004F000001B61EB0201001C41F5801149084FEA25
:1005000030000019514132462B4603B000F01CB8B0
:1005100000F089B90098012240000023D0EB0202CC
:1005200063EBE073009821464FEAE074B8EB0000FB
:1005300061EB0401E9E783F000435BE781F00041F0
:1005400058E730BCBDE8C08F30BCBDE8C04FFFF7F6
:10055000DFBF2DE9FE4F81EA030404F0004421F0DF
:10056000004100944FF0000B23F0004350EA0104D7
:100570005ED052EA03045BD0C3F30A54C1F30A55B8
:100580002C44A4F2F3340194A0FB0254C1F31301F0
:1005900041F48011C3F3130343F4801301FB0244BD
:1005A00000FB034E840A970A44EA815447EA8357C2
:1005B000A4FB076802958D0A05FB07854FEA932C7B
:1005C00004FB0C542705029D4FEA065847EA1637EC
:1005D000B5EB08056EEB070C870E920E47EA811704
:1005E00042EA8312A7FB0201B6EB0B0164EB0004A5
:1005F0002B0D43EA0C335E1844EB1C50DA4651468F
:10060000E7FB0201C5F313044FEA0B3343EA14532B
:100610004FEA0432019C43EA0603A4F10C0402945D
:10062000009CCDE900B400F00DF903B000F003B870
:1006300000200146F9E730BCBDE8C08F2DE9F04D40
:1006400081EA030404F0004B21F0004514464FF00A
:10065000000A23F0004150EA050220D054EA0102CA
:100660001DD0C5F30A570246C5F31303C1F31300A7
:10067000C1F30A5640F4801543F48013A7EB060833
:10068000101BD64608F2FD3873EB050002D308F1C3
:10069000010801E092185B41B8F1000F03DA002075
:1006A0000146BDE8F08D00204FF4801106468446D7
:1006B0000EE0171B73EB050705D3121B63EB050355
:1006C00006434CEA010C49084FEA300092185B419E
:1006D00050EA0107EDD152EA030012D082EA040089
:1006E00083EA0501084305D0101BAB4106D2012265
:1006F000002306E000224FF0004302E06FF0010209
:1007000053101AEB06004CEB085110EB0A0041EBBA
:100710000B01BDE8F04D00F086B80EB540F2334154
:1007200002910021CDE900110A460B4600F08AF83B
:1007300003B000BD70B5C1F30A5201F000450024BA
:10074000C1F3130140F2FF3341F480119A4201DA00
:10075000002070BD40F233439A42A2F2334203DCE0
:10076000524200F03EF800E090402C43F1D040426D
:1007700070BD00F0004230F000400AD0C10D01F51C
:100780006071C0F3160042EA0151C20840071143EC
:10079000704700200146704730B50B4601460020E7
:1007A0002022012409E021FA02F59D4205D303FA33
:1007B00002F5491B04FA02F52844151EA2F10102B4
:1007C000F1DC30BD202A04DB203A00FA02F10020DF
:1007D00070479140C2F1200320FA03F3194390407F
:1007E0007047202A04DB203A21FA02F000217047EA
:1007F00021FA02F3D040C2F1200291400843194689
:100800007047202A06DBCB17203A41FA02F043EA70
:10081000E07306E041FA02F3D040C2F120029140B9
:1008200008431946704710B5141E73F1000408DA26
:10083000401C41F1000192185B411A4301D120F0A4
:10084000010010BD2DE9F04D92469B4611B1B1FA61
:1008500081F202E0B0FA80F220329046FFF7B2FF58
:1008600004460F4640EA0A0041EA0B0153465A4645
:10087000084313D0114653EA010019D0C8F14002D1
:100880005046FFF7AEFF05460E46504659464246D3
:10089000FFF798FF084305D0012004E020463946C1
:1008A000BDE8F08D0020054346EAE0762C4337434F
:1008B0000A986305E40AA0EB08000022FD0A44EA56
:1008C00047540A3002D500200146E9E70105101916
:1008D0006941DDE9084500196941BDE8F04DA2E72D
:1008E000C1F30A52C1F3130140F2FF3341F4801106
:1008F0009A4202DA00200146704740F233439A429E
:10090000A2F2334202DC5242FFF76BBFFFF75ABF3D
:1009100030B5041E71F1000404DB4FF00044404286
:1009200064EB0101141E73F1000405DB1C464FF05B
:100930000043524263EB0403994208BF904230BD2A
:10094000064C074D06E0E06840F0010394E807001C
:1009500098471034AC42F6D3FFF71CFCA8460308B6
:10096000C846030870B58D1810F8014B14F0030247
:1009700001D110F8012B231106D110F8013B03E03F
:1009800010F8016B01F8016B521EF9D1ABB110F8F0
:10099000012B04F00C048A1A0C2C03D0A2EB841255
:1009A0009B1C08E010F8014BA2EB0422F8E712F8B8
:1009B000014B01F8014B5B1EF9D5A942D4D30020AD
:1009C00070BD000070B504460068816811F0010F29
:1009D00028D18168144A114215D18168D543294034
:1009E000491C816001F01CF8064616E0816811F090
:1009F000010F03D181682940491C816001F010F882
:100A0000801B022809D9606D40F010006065A06D60
:100A100040F00100A065012070BD20680168C94355
:100A2000C907E3D1002070BD3F0000809CB00025C5
:100A3000402108A8FFF7B6FC142103A8FFF7B2FC79
:100A4000434F444E444C1A953878F0B13D70002025
:100A5000424A318802E0135C2354401C8842FADB8E
:100A60003F4801703C48FFF7A8FC0090217833888C
:100A7000394A3CA005F0A6FD20783D280CD063281B
:100A800008D064285ED004F0C5FB4FF47A7017F0EC
:100A9000B3FFD9E73FA056E060786D283FD07328B8
:100AA00003D040A005F08EFDEFE741A005F08AFDE0
:100AB000E178199122791892637994F806A094F854
:100AC000079094F80880CDF800A0CDE901989B46E6
:100AD0003BA005F077FD8DF80CA08DF80D908DF8FA
:100AE0000E800695002203A93D48079502F0C8F93B
:100AF00008B100F0ABF98DF868B019988DF869006D
:100B000018988DF86A0016208DF86B0000221AA93B
:100B1000334802F065F9C0B100F098F915E0A0780B
:100B2000312807D0322807D0332809D03428ACD157
:100B3000042002E0012000E0022016F0B3FE04E0F1
:100B40000320FAE727A005F03DFD05F085FA9CE7B4
:100B50005001002052010020402E0020B835002016
:100B600004010020627566657252585B305D3D2558
:100B70006320627566657252583D25732072786CE9
:100B8000656E3D256420627566666C656E3D256404
:100B900000000000C0B6D1C0D2D1BEADC1ACBDD343
:100BA0000D0A00006E6F7468696E670D0A00000020
:100BB000BBF1C8A1B5BDC1CBCAB1BCE40D0A0000F0
:100BC0002564D4C2202564C8D520D0C7C6DA2564E0
:100BD000202564A3BA2564A3BA25640D0A00000089
:100BE00004300020B6CFBFAAC0B6D1C0B6CFBFAACE
:100BF000BDD30D0A00000000FEE70000002108A0A0
:100C000005F0E0FC07F09CFC044603F013FE1CB169
:100C1000214603A005F0D6FC642017F0EDFEF1E7B5
:100C2000627574746F6E3D2564000000F8B5012094
:100C30008DF8000000244FF070464FF09045641C82
:100C4000B44219D200221021284600F0E3FE6423AA
:100C500001220A490A4802F01AFB6423012269466C
:100C6000074802F04DFA01221021284600F0D2FE7A
:100C70009DF80000C007E2D1F8BD0000010000208F
:100C800028300020014800F0CBBC00008C30002050
:100C9000014800F0C5BC0000003B0020014800F006
:100CA000BFBC0000B83A0020014800F0B9BC000009
:100CB000483B0020014800F0B3BC0000903B0020FE
:100CC00030B590F8444004F01C050124AC40056C9C
:100CD0006C60046863608368102B036803D09960BC
:100CE0000068C26030BD9A600068C16030BD00001D
:100CF0004FF00008214E224D224C012708F058FEEB
:100D0000AB78E06983420FD06A781FA1214805F0D3
:100D100069FCAA781F49A760E26181F805806978BB
:100D20001C4B1DA005F04EFC7078A16988420ED0C6
:100D300020A005F047FC7378327828A12A4805F0F6
:100D400051FC707828496760A06181F80580B2780D
:100D5000606A824208D0276124A12648626205F0B9
:100D600041FC244981F802802878216A884201D018
:100D7000E7602062642017F03FFEBFE7102E0020DE
:100D80006800002004010020253032642D25303217
:100D900064000000631C00206D3D256420646174C4
:100DA000653D25642020737472696E673D2573204C
:100DB0000D0A000067657420696E20646174615FCC
:100DC0007461736B207072655F6D696E213D735441
:100DD000696D652E6D696E200D0A00002530326444
:100DE0003A253032640000005D1C0020253032645A
:100DF00000000000BD1B00207047000010B501205E
:100E000000F018FD03A005F0DDFB05490120087086
:100E100010BD0000B0B4BCFC31B0B4CFC20D0A00AC
:100E20002800002010B54FF4006000F003FD03A07F
:100E300005F0C8FB04490120087010BDB0B4BCFC2B
:100E400032B0B4CFC20D0A00290000207047000064
:100E50002DE9F84F00270446009790F85000DFF87E
:100E6000B0930D46B846012811D0012684F8506091
:100E7000206803F01FFD60B1606D40F020006065E8
:100E80005FF0010784F85080384600F0D7B902209F
:100E9000FBE768680C23052812D8022807D003282E
:100EA00007D0042807D0052807D0062007E06B608C
:100EB00006E0122003E0182001E04FF48070686023
:100EC000D5E90021206803EA91131844036B01F06F
:100ED0001F014FF01F0C0CFA01FCC2F3846223EADD
:100EE0000C038A4013430363206803F0E3FC82464B
:100EF000206803F0DBFC5AEA00001DD1AA682968CB
:100F0000206803F0E3FC20686969C268C2F3C1028B
:100F1000520091402A69042A0FD000EB82002B680E
:100F2000026EDFF8F0C203F0F84302EA0C020B4352
:100F30001A4342F00041016672E0002103F0B0FC68
:100F4000400320684FF0000172D003F0A9FC90FA32
:100F5000A0F0B0FA80F1286842036ED090FAA0F0B9
:100F6000B0FA80F0814204D100221146206803F0DB
:100F7000BCFC0121206803F093FC400320684FF083
:100F800001015DD003F08CFC90FAA0F0B0FA80F182
:100F90002868420359D090FAA0F0B0FA80F081425C
:100FA00004D100220121206803F09FFC0221206867
:100FB00003F076FC400320684FF0020148D003F0B4
:100FC0006FFC90FAA0F0B0FA80F12868420344D098
:100FD00090FAA0F0B0FA80F0814204D10022022100
:100FE000206803F082FC0321206803F059FC4003D1
:100FF00020684FF0030133D003F052FC90FAA0F0C8
:10100000B0FA80F1286842032FD090FAA0F0B0FA2D
:1010100080F0814204D100220321206803F065FCA6
:101020002068816811F0010F22D0ACE000E004E0FC
:1010300003F036FCC0F384618DE7C0F3846091E770
:1010400003F02EFCC0F38461A2E7C0F38460A6E73E
:1010500003F026FCC0F38461B7E7C0F38460BBE70C
:1010600003F01EFCC0F38461CCE7C0F38460D0E7DA
:101070002A7B296850F8B03FC1F3120C23EA0C0315
:1010800002F0180C644A22FA0CF20A40134303607F
:10109000E968494577D1286841031CD090FAA0F14E
:1010A000B1FA81F1491C01F01F0109294FEA4031D1
:1010B00032D8002912D000BF90FAA0F1B1FA81F124
:1010C00001F1010101F01F0106FA01F609D100BF8B
:1010D000C0F3846109E0C0F38461E3E7C0F3846195
:1010E000EEE790FAA0F1B1FA81F101F1010101F00E
:1010F0001F0146EA816102D1C0F3846003E090FAE7
:10110000A0F0B0FA80F000F1010000F01F0000EB49
:10111000400041EA005132E000290ED090FAA0F1DF
:10112000B1FA81F101F1010101F01F0106FA01F6A6
:1011300006D100BFC0F3846106E0C0F38461F1E72B
:1011400090FAA0F1B1FA81F101F1010101F01F0162
:1011500046EA816102D1C0F3846003E090FAA0F016
:10116000B0FA80F000F1010000F01F002B4A00EB04
:10117000400002EB005041EA000141F00071AA6812
:10118000206803F0A3FB26482A6802423FF47AAEA7
:1011900024488168244D254B01F0E071AA421AD100
:1011A0000D0218D422689A427FF46CAE826841F432
:1011B000000122F0E0720A4382601D481D49006868
:1011C000B0FBF1F000EB4000800000E0401E00901A
:1011D0000028FBD156E6184DAA4207D1CD0105D40F
:1011E00022689A42F6D141F080710AE06FF0004522
:1011F000EA42EFD14A02EDD422689A42EAD141F4A0
:101200008001826822F0E0720A4382603AE60000C0
:1012100000007F4000F0FF03FFFF0700000020FEFA
:101220000000088000030450000052C70000045072
:1012300064010020400D0300000084CB18BCBDE811
:10124000E08F406D70470068006C7047F8B54FF054
:10125000000504002E46009502D0606D10B107E035
:101260000120F8BD204600F0C7F8A66584F850605C
:1012700020688168C1F3407119B18168564A1140F4
:10128000816020688168C1F3007179B98168534A2F
:10129000114041F080518160514852490068B0FBD3
:1012A000F1F000E0401E00900028FBD1206881682A
:1012B000C1F3007141B9616D41F010016165A16D2B
:1012C00041F00101A165012503F0F4FA616DC90641
:1012D00000D430B1606D40F01000606501252846F3
:1012E000F8BD606D20F4807040F0020060652068F9
:1012F000806810F0010F0BD13B48806810F0010F9F
:1013000006D13A486168826822F47C120A438260FE
:10131000E168606B627E0843A16841EA423108439C
:1013200094F8201040EA0140012904D1A18C304AF0
:1013300002EB41410843A16A29B101F47071E26AEC
:10134000014342EA01002168CA682A4B1A4002435D
:10135000CA60206803F0AEFA0646206803F0A6FAD9
:10136000304315D1207E94F83010800340EA4102CA
:101370002068C16844F2020399431143C16094F8A4
:10138000380001280CD02068016921F001010161B9
:10139000206901282068016B21F00F0111D013E0B2
:1013A000D4E90F010843D4E911121143084321681D
:1013B0000A6940F2FC739A43104340F0010008614F
:1013C000E6E7E269521E11430163606D20F00200FE
:1013D00040F00100606582E7C0FFFF5FC0FFFF7F54
:1013E00064010020400D030000000450000304507D
:1013F0000000FEFF07C0F0FF10B586B004461421C0
:101400006846FEF7CFFF1049206888421AD10F487E
:10141000C16C41F40051C164C16C01F400510591EB
:10142000C16C41F00201C164C06C694600F0020069
:101430000590012000900B200190002002900448AC
:1014400000F004FA06B010BD000004500010024085
:10145000000400482DE9F041044640690D46082883
:101460000AD02068C068C00708D0606D40F0200036
:1014700060650120BDE8F081082600E0042600F048
:10148000CFFA074607E0681C05D000F0C9FAC01B78
:10149000A8420FD875B1206800683042F3D0606D63
:1014A00040F400706065206803F008FAD0B1607EF7
:1014B00048B117E0606D40F004006065002084F8DA
:1014C00050000320D6E72068006800070AD5606D49
:1014D00020F480706065606DC00403D4606D40F0DE
:1014E000010060652068C168082E05D0490401D458
:1014F0000C2101600020BDE70821FAE710B5044681
:10150000006803F0D7F910B10221084610BD94F825
:10151000500001280CD0012084F850002046FFF72D
:1015200051FA01004FF0000004D084F85000ECE7BD
:10153000022010BD626D40F601639A4342F480724E
:101540006265626DD20404D5A26D22F00602A26526
:1015500000E0A06523681C221A6084F8500020680F
:10156000C268920105D5626D22F4005242F48052A5
:1015700062658268024B1A40121D8260C5E7000056
:10158000C0FFFF7F10B590F825100022022905D07A
:101590000421C16380F82420012010BD01680B687C
:1015A00023F00E030B6001680B6823F001030B604E
:1015B00090F84410046C01F01C03012101FA03F3BC
:1015C000636080F8251080F82420104610BD10B507
:1015D00090F825100024022903D00421C1630124BE
:1015E0001AE001680A6822F00E020A6001680A68BF
:1015F00022F001020A6090F84410036C01F01C0212
:10160000012101FA02F25A6080F82510002180F8C9
:101610002410816B01B18847204610BDC06B704714
:10162000F0B4016C0C6801680D6890F8442002F079
:101630001C06042202FA06F3234211D06B070FD5D1
:101640000B689B0603D40B6823F004030B6090F82F
:10165000441001F01C018A40016C4A60016B1DE0DE
:10166000022303FA06F727424FF0000C4FF0010265
:1016700018D0AF0716D50C68A40605D40C6824F062
:101680000A040C6080F8252090F8441001F01C0139
:101690008B40016C4B6080F824C0C16A00291AD0CD
:1016A000F0BC08470823B340234214D02B0712D5BF
:1016B0000B6823F00E030B6090F84410036C01F0EC
:1016C0001C0102FA01F15960C26380F8252080F8FC
:1016D00024C0416BE2E7F0BC7047000070B568B110
:1016E0002B4C036814212B4AA34209D22A4C1C44D8
:1016F000B4FBF1F18900C0E910210BE0012070BDBD
:10170000234C64421C44B4FBF1F18900416420493C
:1017100008390164022180F825101C6847F6F07131
:101720008C43D0E902152943D0E9045635432943B7
:1017300085692943C5692943056A294321431960FD
:101740008168B1F5804F19D0036C0F21934202D10B
:1017500052F8A83F02E00E4AA032136890F84440C5
:1017600004F01C04A1408B43136090F8443041689E
:1017700003F01C0399401368194311600021C163F1
:10178000012280F8252080F82410084670BD000052
:101790000804024000000240F8FFFDBF70B5044697
:1017A00090F82400002501280CD0012084F82400A2
:1017B00094F825600020012E06D084F8240002252C
:1017C000284670BD022070BD022684F82560E063C3
:1017D0002068066826F0010606602046FFF770FACA
:1017E000206B00282068016802D041F00E0106E05D
:1017F00021F0040101602068016841F00A010160E4
:101800002068016841F001010160D9E770B5044624
:1018100000F006F90546601C02D004480078044434
:1018200000F0FEF8401BA042FAD370BD5801002022
:1018300070470000044910B50A68024202D00860EF
:10184000FFF7F6FF10BD0000140401402DE9FC4F26
:10185000DFF894A1002301250AF1040B03244FF0C3
:101860000F0C0BF1040EB8E005FA03F632406FD00E
:101870004F68012F05D0022F03D0112F01D0122F56
:1018800017D1D0F808905F0004FA07F829EA080990
:101890000097D1F80C8008FA07F848EA0908C0F860
:1018A00008804768B7430E79C6F300169E403E4352
:1018B0004660C6684FEA430804FA08F7BE4301973A
:1018C0008F6807FA08F73743C7604E68022E01D0C9
:1018D000122E13D1DE0800EB86060096366A5F07EB
:1018E000FF0E0CFA07F926EA0906D1F8109009FA5A
:1018F00007F949EA0609009EC6F820900668019F8C
:10190000BE430F7907F0030707FA08F7374307606C
:101910004E68F60060D5354E376E47F001073766E2
:10192000366E23F0030706F001060096304E3E4463
:10193000B146B6689F074FEA17780CFA08F7BE431E
:10194000B0F1904F05D02B4FB84204D1012712E0DF
:1019500042E000270FE0284FB84201D102270AE0F9
:10196000264FB84201D1032705E0254FB84201D1E7
:10197000042700E0072707FA08F73743C9F808707B
:10198000DAF800605746D1F8048096435FEAC83819
:1019900000D516433E60DBF800605F46D1F8048056
:1019A00096435FEA883800D516433E60DEF8006053
:1019B0007746D1F8048096435FEAC82800D51643DD
:1019C0003E60094F0C373E68D1F8048096435FEAC9
:1019D000882800D516433E605B1C0A6832FA03F67D
:1019E0007FF442AF00F00EB8000401400010024046
:1019F000000001400004004800080048000C0048B6
:101A0000001000481CBCBDE8E08F0069084000D011
:101A1000012070470AB18161704781627047000000
:101A200001488068704700005801002090F841206C
:101A3000202A24D190F84020012A20D0012280F8C9
:101A40004020242280F841200268136823F001031B
:101A500013600268136823F48053136002681368EC
:101A60000B43136001680A6842F001020A602021FA
:101A700080F84110002180F840100846704702208D
:101A8000704790F84120202A22D190F84020012A66
:101A90001ED0012280F84020242280F841200268D4
:101AA000136823F0010313600268136823F4706362
:101AB00043EA0121116001680A6842F001020A60EC
:101AC000202180F84110002180F84010084670471E
:101AD0000220704770B5040004D094F8410000253E
:101AE00010B106E0012070BD84F84050204600F09F
:101AF000B3F9242084F841002068016821F0010135
:101B000001606068216820F0706008612068816869
:101B100021F400418160E0680128A06807D040F40A
:101B2000044021688860E068022803D006E040F4A1
:101B30000040F6E721684FF4006048602068416883
:101B4000114A114341602068C16821F40041C1601D
:101B5000D4E904010843A16940EA01202168C86072
:101B6000D4E907010843216808602068016841F052
:101B7000010101606564202084F84100256384F838
:101B80004250002070BD0000008000022DE9FF4F90
:101B900083B00446DDE9108790F84100DDF84890F5
:101BA0009A469346202874D15FEA080014D09FB16A
:101BB00094F8400001286CD0012084F84000FFF721
:101BC0002FFF0646012200901923D103204602F080
:101BD000F7FB002871D103E04FF4007060646CE003
:101BE000222084F84100402084F8420000256564EA
:101BF000C4F8248067856563CDE9009653465A464C
:101C00002046049902F062FB10B184F8405054E081
:101C1000618D3548FF274FF080784FF0007AFF291B
:101C200004D927853A464346009005E0618D218519
:101C3000009094F8282053462046049902F0AAFB0D
:101C40004B46002204212046009602F0B9FBA0BBBF
:101C50002068406A616A0870606A401C6062208D7A
:101C6000401E81B22185608D401E6085608DD8B197
:101C7000D1B94B46002280212046009602F0A0FBFD
:101C8000D8B9608DFF2805D927853A464346009587
:101C900006E026E0608D2085009594F828205346C4
:101CA0002046049902F076FB608D0028C8D13246A8
:101CB0004946204602F0B0FB18B1012007B000F001
:101CC00017B821682020C86121684A68074B1A406C
:101CD0004A6084F8410084F8425084F84050002063
:101CE000ECE70220EAE700000024008000E800FEA4
:101CF00030BCBDE8C08F00002DE9FF4F83B0044623
:101D0000DDE9108790F84100DDF848909A46934647
:101D1000202871D15FEA080014D09FB194F84000E8
:101D2000012869D0012084F84000FFF779FE0646BB
:101D3000012200901923D103204602F041FB002824
:101D40006ED103E04FF40070606469E0212084F8F4
:101D50004100402084F8420000256564C4F82480D6
:101D600067856563CDE9009653465A462046049937
:101D700002F0DEFA10B184F8405051E0608DFF2788
:101D80004FF080784FF0007AFF2804D927853A4633
:101D90004346009505E0608D2085009594F8282045
:101DA00053462046049902F0F5FA32464946204649
:101DB00002F058FBA0BB606A216800788862606A04
:101DC000401C6062608D401E6085208D401E80B288
:101DD0002085618DD9B1D0B94B46002280212046A3
:101DE000009602F0EDFAD8B9608DFF2805D9278555
:101DF0003A464346009506E026E0608D2085009532
:101E000094F8282053462046049902F0C3FA608DC6
:101E10000028CAD132464946204602F0FDFA18B1E0
:101E2000012007B000F014B820682021C1612068AB
:101E30004268064B1A40426084F8411084F84250D0
:101E400084F840500020ECE70220EAE700E800FEBA
:101E500030BCBDE8C08F0000F0B587B00446142147
:101E60006846FEF79FFA204F2668204C1221012277
:101E7000032304251E48BE4217D1E66C46F0020635
:101E8000E664E66C01AF06F002060596C0260096F1
:101E900087E82E006946FFF7D9FCA06D40F40010DA
:101EA000A065A06D00F400101AE0124FBE4218D1D8
:101EB000E66C46F00206E664E66C01AF06F0020648
:101EC00005964FF44066009687E82E006946FFF7B6
:101ED000BDFCA06D40F48000A065A06D00F4800002
:101EE000059007B0F0BD0000005400400010024013
:101EF00000040048005800400248816802781144FC
:101F0000816070475801002010B50024032000F0C4
:101F100089F8002000F008F808B1012401E000F081
:101F20003DF8204610BD000000B5014687B00022F4
:101F3000362000F057F8362000F046F81348816D3F
:101F400041F010018165806D05A900F01000069038
:101F5000684600F017FB00F035FB0D490D4AB0FB59
:101F6000F1F10D48491E0260416040F2E732002164
:101F7000C0E90321816001F001FC10B1012007B02C
:101F800000BD054801F04AFCF9E7000000100240DE
:101F900040420F0000100040D83B0020094808B51F
:101FA000016E41F001010166016E01F00101009135
:101FB000816D41F080518165806D00F0805000900E
:101FC00008BD000000100240002809DB00F01F02DD
:101FD000012191404009800000F1E020C0F800118B
:101FE00070470000F0B40E4B1B680C46C3F302238D
:101FF000C3F10705042D00D90425191D072901D2B5
:10200000002300E0DB1E012606FA05F1491E2140EF
:1020100099409E40761E16403143F0BC04F0F6BA5B
:102020000CED00E0064900F0070208684FF6FF03D8
:10203000184040EA0220034A10430860704700003D
:102040000CED00E00000FA051649B0F5007F0868C5
:10205000C0F3412009D0022805D0086820F4C060F0
:1020600040F480600860002070470128FBD00868B9
:1020700020F4C06040F4007008600B483222006811
:1020800050430A4AB0FBF2F0401C00E0401E4A698F
:10209000520501D50028F9D148694005E3D5032050
:1020A00070470000007000406401002040420F00B3
:1020B000034610B500201E4A082B37D2DFE803F094
:1020C000040F181F2636362D536A21F4204423436B
:1020D0005362136A21F480418B43136210BDD36AAB
:1020E00021F010042343D362936A8B43936210BDA3
:1020F000536B0B435363136B8B43136310BDD36B51
:102100000B43D363936B8B43936310BD536C0B43AF
:102110005364136C8B43136410BDD36D01F00B013A
:102120000B43D365936D8B43936510BD012010BDA8
:10213000007000400248816841F48061816070470E
:10214000007000400248006800F4C0607047000062
:102150000070004003498A6800F01F0082438A60D3
:1021600070470000007000400549CB6800F01F0276
:10217000934343EA5010C8608868104388607047F2
:10218000007000400648016821F00701C91C016089
:102190000448016841F00401016030BF704700004D
:1021A0000070004010ED00E02DE9F84F04460027D4
:1021B0000088A84D3E46000515D5606C60B1B0F5AD
:1021C000000F04D0B0F5400F2BD001270AE0E868DB
:1021D00040F48030E86024E00021201D03F076F810
:1021E00007001ED03E46206880033AD5A86D4FF008
:1021F0000008C00009D4A86D40F08050A865A86D03
:102200004FF0010800F080500090DFF84CA2DAF89F
:10221000001041F48071CAF80010FFF701FC8146FC
:1022200010E0D5F88800616C20F440000843C5F840
:102230008800D8E7FFF7F4FBA0EB0900022801D9DA
:10224000032705E0DAF80000C005F3D5002F7DD0A4
:102250004FEA0706B8F1000F03D0A86D20F08050B8
:10226000A8652078C00707D0D5F88800216A20F03B
:1022700003000843C5F888002078800707D5D5F803
:102280008800616A20F00C000843C5F888002078B7
:10229000400707D5D5F88800A16A20F03000084330
:1022A000C5F888002078800607D5D5F88800E16A4F
:1022B00020F440600843C5F888002088800507D5D1
:1022C000D5F88800E16B20F440200843C5F8880069
:1022D0002088400507D5D5F88800216C20F44010EF
:1022E0000843C5F888002078400607D5D5F888004F
:1022F000216B20F440500843C5F888002078000680
:1023000007D5D5F88800616B20F440400843C5F834
:1023100088002088C00507D5D5F88800A16B20F477
:1023200040300843C5F8880020684FF0006700037C
:102330004FF0806850D5D5F88800A16C20F040603F
:102340000843C5F88800A06CB84200E005E03BD126
:10235000E86840F48010E8603EE0D5F8900010F4A2
:10236000407014D0A16D814211D0D5F89000D5F8FD
:10237000901020F4407041F48031C5F89010D5F8E9
:10238000901021F48031C5F89010C5F89000C00776
:1023900011D0FFF745FB074641F2883907E000BF3F
:1023A000FFF73EFBC11B494501D9032652E7D5F88B
:1023B00090008007F4D5D5F89000A16D20F440700E
:1023C0000843C5F8900045E7404505D10121201D8F
:1023D00002F07CFF00B106462068400317D5D5F80F
:1023E0008800E16C20F040600843C5F88800E06C8C
:1023F000B84204D1E86840F48010E86007E0404546
:1024000005D10121201D02F061FF00B106462088A0
:10241000400411D5D5F88800216D20F040500843C4
:10242000C5F88800206DB0F1805F05D10221201D24
:1024300002F04CFF00B106462088000406D555F88E
:10244000880F616D20F0804008432860304600F01E
:1024500005B80000001002400070004018BCBDE844
:10246000E08F00002DE9F0470F46050058D0404EA0
:10247000306800F00700B84209D2306820F0070049
:1024800038433060306800F00700B84248D12878FF
:10249000384CC0072CD06868032811D0022812D00D
:1024A000216898B1490500293ADAA16821F00301B1
:1024B0000143A160FFF7B4FA804641F2883910E089
:1024C00021688901EFE721688903ECE78907EAE7DA
:1024D000FFF7A6FAA0EB0801494502D90320BDE8A1
:1024E000F087A068696800F00C00B0EB810FEFD1B5
:1024F0002878800705D5A068A96820F0F000084377
:10250000A060306800F00700B8420BD9306820F0B6
:10251000070038433060306800F00700B84201D04F
:102520000120DCE72878400705D5A068E96820F499
:10253000E0600843A0602878000706D5A0682969F4
:1025400020F4605040EAC100A06000F05FF8A1688C
:10255000094AC1F30311515C01F01F01C84007494A
:10256000086007480068BDE8F047FFF7DDBC0000E1
:1025700000200240001002404CB701086401002016
:102580005C0100200F2202600C4A936803F00303F1
:102590004360936803F0F0038360936803F4E0639F
:1025A000C36092684FF4E06303EAD2020261044818
:1025B000006800F00700086070470000001002404B
:1025C000002002400548064900688968054AC1F3B1
:1025D0000221515C01F01F01C840704764010020D6
:1025E000001002408CB70108054806490068896858
:1025F000054AC1F3C221515C01F01F01C840704778
:1026000064010020001002408CB7010870B5254914
:10261000002318468A68CC6812F00C0204F0030606
:10262000214C4FEA440509D00C2A05D0042A32D0A7
:10263000082A00D1284670BD012E10D10B681B0757
:1026400004D4D1F89430C3F3032302E00B68C3F33E
:102650000313164E56F82330DAB10C2AEBD1C868B2
:1026600000F00300022818D0032818D01846CA68C2
:10267000CB68C2F30212C3F306234343521CB3FBDD
:10268000F2F2C868C0F34160401C4000B2FBF0F0B9
:1026900070BD184670BD204670BD2046E7E728464D
:1026A000E5E70000001002400024F4005CB70108D8
:1026B0002DE9F84304006FD0FE4DA86800F00C0629
:1026C000E86800F003072078C00664D576B10C2EC8
:1026D00001D1012F0AD0A069002828687AD040F0E3
:1026E00001002860FFF79CF980465DE028688007BC
:1026F00002D5A0690028DED0216A2868000703D52A
:10270000286800F0F00004E0D5F89400F02202EA16
:102710001010814216D9084602F06EFE00283BD107
:10272000286840F0080028602868216A20F0F0003E
:10273000084328606868E16920F47F4040EA01208E
:10274000686016E0286840F0080028602868216A60
:1027500020F0F000084328606868E16920F47F40B9
:1027600040EA0120686026B9206A02F045FE002890
:10277000D5D1FFF74BFFA968CF4AC1F30311515CD4
:1027800001F01F01C840CD490860CD480068FFF73F
:10279000CBFB00287ED12EE0CAE000BFFFF740F956
:1027A000A0EB0800022876D828688007F6D52868AC
:1027B00040F0080028602868216A20F0F0000843F3
:1027C00028606868E16920F47F4040EA0120686081
:1027D00011E0FFE720F001002860FFF721F98046B3
:1027E00006E000BFFFF71CF9A0EB08000228DAD8CA
:1027F00028688007F6D42078C00740D0082E18D06B
:102800000C2E01D1032F14D06068B0F5803F17D093
:10281000B0F5A02F286817D020F4803028602868F1
:1028200020F4802028606068E0B1FFF7F9F8804666
:1028300014E02868800322D56068002878D01EE064
:10284000286840F48030EDE740F480202860F7E706
:10285000FFF7E6F8A0EB08006428A4D828688003F6
:10286000F6D50CE0FFF7DCF8804605E0FFF7D8F876
:10287000A0EB0800642896D828688003F6D4207856
:1028800080073BD5042E11D00C2E01D1022F0DD084
:10289000E06801E0B6E1FFE0002828681ED040F4BF
:1028A00080702860FFF7BCF807460CE028684005F8
:1028B0000CD5E0680028C1D008E000BFFFF7B0F8F1
:1028C000C01B022893D828684005F7D56868217C8A
:1028D00020F0FE4040EA016068600FE020F4807064
:1028E0002860FFF79DF8074605E000BFFFF798F85E
:1028F000C01B0228B1D828684005F7D4207800070B
:1029000029D560690028D5F8940012D040F0010064
:10291000C5F89400FFF784F8074604E0FFF780F855
:10292000C01B022899D8D5F894008007F6D512E08C
:102930002BE120F00100C5F89400FFF771F807467D
:1029400005E000BFFFF76CF8C01B022885D8D5F85A
:1029500094008007F6D42078400766D5A86D00273C
:10296000C00008D4A86D40F08050A865A86D01276C
:1029700000F08050009053480168C90512D40168E6
:10298000814641F480710160FFF74AF8804605E016
:10299000FFF746F8A0EB080002287DD8D9F8000020
:1029A000C005F5D5A068012816D00528D5F89000F7
:1029B00017D020F00100C5F89000D5F8900020F065
:1029C000040000BFC5F89000A06841F28839C0B18A
:1029D000FFF726F880460FE0D5F8900040F00100A0
:1029E000F0E740F00400C5F89000F5E7FFF718F8AD
:1029F000A0EB080149454FD8D5F890008007F5D5E0
:102A00000EE0FFF70DF8804606E000BFFFF708F87C
:102A1000A0EB080149453FD8D5F890008007F5D4D0
:102A20001FB1A86D20F08050A8652078800628D5B9
:102A3000606A0028D5F8980012D040F00100C5F86F
:102A40009800FEF7EDFF074605E000BFFEF7E8FF40
:102A5000C01B022820D8D5F898008007F6D510E0D2
:102A600020F00100C5F89800FEF7DAFF074604E001
:102A7000FEF7D6FFC01B02280ED8D5F898008007B5
:102A8000F6D4A06AA8B1022824D00C2E7DD02868E4
:102A900020F08070286000E0B3E02868000103D4D3
:102AA000E86820F00300E860E86807490840E8604B
:102AB0000CE09FE0001002404CB7010864010020C8
:102AC0005C01002000700040FFFFEEFEFEF7A8FF53
:102AD000044699E0E868E26A00F00301914226D1D9
:102AE000216B00F070020901103991421FD1626B15
:102AF00000F4FE41B1EB022F19D194F8382000F018
:102B00007841B1EBC26F12D1A18F00F4C002490825
:102B10004905A1F50011914209D194F8401000F047
:102B2000C06049084906A1F1007181424BD00C2ECA
:102B30006FD0286840016CD4286820F0807028602D
:102B4000FEF76EFF064604E0FEF76AFF801B0228D0
:102B500057D828688001F7D4F4E90B016FF00F0211
:102B600002EB01110843218A5204490802EB41514A
:102B7000A26841EA02210843217D4FF07E424908C4
:102B800002EB41610843217B00E042E040EAC16082
:102B9000E968214A11400843E860286840F08070E5
:102BA0002860E86840F08070E860FEF739FF04466E
:102BB00005E000BFFEF734FF001B022821D828687B
:102BC0008001F7D523E02868800120D4286840F0F0
:102BD00080702860E86840F08070E860FEF720FFB1
:102BE000044604E0FEF71CFF001B022809D82868F1
:102BF0008001F7D50BE000BFFEF712FF001B022893
:102C000002D90320BDE8F88328688001F4D40020AD
:102C1000F8E70120F6E700008C809D0170477047BF
:102C200010B5144904464FF480200860206881687C
:102C3000C9040BD5C168C90508D5C16801F0800178
:102C400061F4C071C1602046FFF7E9FF2068816828
:102C500089040BD5C168890508D5C16801F08001D8
:102C600061F42071C1602046FFF7D8FF012084F88D
:102C7000210010BD1404014010B500680B464168E6
:102C80000D480140080CD870C1F304245C7001F0B9
:102C90003F049C70C1F34231197052B902F01EFC1E
:102CA000D870587802F01AFC5870987802F016FC28
:102CB0009870002010BD00003FFFFF0010B50B46CC
:102CC0000168896A596001680969C1F30E01996058
:102CD000006801680D480140C1F305401870C1F358
:102CE00006245C7001F07F049C70890DD97052B984
:102CF00002F0F4FB1870587802F0F0FB58709878E6
:102D000002F0ECFB9870002010BD00007F7F7F0078
:102D100010B504004FF0010044D094F8210028B908
:102D2000002084F82000204600F040F8022084F8BB
:102D300021002168CA204862216853204862204649
:102D400002F0E2FB00282DD120688168164A11406C
:102D50008160216888686268A369104322691A4308
:102D6000104388602168E068086120680169228951
:102D700041EA02410161204602F0EAFB002811D13C
:102D80002168CA6C22F00302CA646269E1691143D6
:102D90002268D36C1943D1642268FF21516201215A
:102DA00084F8211010BD0000BFFF8FFF10B5006830
:102DB000094988420FD1094850F8901F41F4004159
:102DC0000160002211462920FFF70CF9BDE81040F0
:102DD0002920FFF7F9B810BD00280040001002407C
:102DE00070B5044690F820000B4601281BD0012640
:102DF00084F82060022084F82100B2B19878D97854
:102E000040EA014558781978000240EA413005430C
:102E10002168CA204862216853204862204602F097
:102E200073FBD0B120E0022070BD5878C10603D5F5
:102E300000F0EF000A305870D87802F058FB050413
:102E4000587802F054FB45EA0025987802F04FFBD1
:102E50000543187845EA4035DAE708480540206818
:102E60004560204602F074FB2268FF21516208B9D8
:102E700084F82160002184F8201070BD3FFFFF001E
:102E80002DE9F041044690F8200090460D460128B7
:102E900011D0012784F82070022084F821002168D5
:102EA000CA204862216853204862204602F02CFB69
:102EB000002618B129E00220BDE8F0812068B8F1B1
:102EC000000F80684FEA406024D0002800DBEE70DD
:102ED000A8782978EA7840EA01406978090241EA4D
:102EE00082510843184908402168086020688168B9
:102EF00021F480218160D5E90301084321688A68B3
:102F000010438860204602F023FB2268FF215162B3
:102F1000A0B115E0002800DBEE70287802F0E7FA97
:102F20000304687802F0E3FA43EA0023A87802F089
:102F3000DEFA0343E87843EA8050D3E784F821704F
:102F400084F82060B8E700007F7F7F0070B50446FA
:102F50000068C16821F0A001C160FEF761FD05466F
:102F60004FF47A7607E000BFFEF75AFD401BB042EF
:102F700001D9032070BD2068C0688006F4D5002008
:102F800070BD70B5040009D0606A002540B12561AC
:102F90006561A56294F85D0040B10CE0012070BD50
:102FA0006068B0F5827FF4D0E561F2E784F85C50A8
:102FB000204600F057F8022084F85D002068016880
:102FC00021F040010160E1684FF4E062914201D9D3
:102FD000002001E04FF48050B1F5706F02D09142B3
:102FE00000D0A562A188228901F4827102F4044212
:102FF0001143227C02F002021143227D02F0010201
:103000001143228B02F400721143227F02F0380236
:10301000114394F8202002F080021143228D02F423
:103020000052114322681160A169042202EA114191
:1030300094F8242000F4805002F01002114394F818
:10304000342002F008021143A28902F47062114395
:103050000143206841602566012084F85D0000205E
:1030600070BD000070B586B0064614216846FDF7B5
:1030700099F91F493068884237D11E49086E40F4DB
:1030800080500866086E00F480500590C86C40F0CF
:103090000100C864C86C002500F001000590E02024
:1030A00000900220CDE90105032003900520049043
:1030B00069464FF09040FEF7C9FB104C0E48206067
:1030C000012060601020C4E902058020C4E90405E5
:1030D0004FF44050A561C4E907502046FEF7FEFAC0
:1030E00008B1FDF7B3FE7465A66206B070BD0000BE
:1030F0000030014000100240300002408C300020BF
:103100002DE9F84F044640680025984616460F46BC
:103110004FF0040BB0F5827F01D1A06888B194F81C
:103120005C00012818D0012084F85C00FEF778FCD0
:10313000814694F85D004FF0000A01280ED0022568
:1031400099E084F85DB013460A462046CDF8008029
:1031500000F064F900F098B80220FBE7002F77D068
:10316000002E75D084F85DB0C4F860A02764A4F880
:103170004460A4F84660C4F838A0A4F83CA0A4F8C1
:103180003EA0C4F84CA0C4F850A0E0684FF4E06141
:1031900088422068426802D922F4805201E042F459
:1031A00080524260A068B0F5004F09D120680268E3
:1031B00022F0400202602068026822F4804202602D
:1031C00020680268520603D4026842F0400202609E
:1031D000E06888421DD93FE020688168C9070BD0AC
:1031E000017B206C0170206C401C2064B4F8460008
:1031F000401EA4F846000CE0FEF712FCA0EB09010B
:10320000414503D3B8F1FF3F03D03BE0B8F1000FD5
:1032100038D0B4F846000028DED121E0206881686B
:10322000C9070BD0C068216C0880206C801C20640A
:10323000B4F84600401EA4F846000DE0FEF7F0FB8F
:10324000A0EB0901414504D3B8F1FF3F04D019E0D8
:1032500010E0B8F1000F15D0B4F846000028DDD119
:103260004A464146204602F0FBF908B1202020667C
:10327000206E00B10125012084F85D0084F85CA077
:10328000284667E70325F6E718BCBDE8E08F2DE97F
:10329000F84F044690F85C0000271D461646894604
:1032A00001280DD04FF0010B84F85CB0FEF7B8FB9D
:1032B000804694F85D00BA46012804D00227A4E0B5
:1032C000022000F0A8B8B9F1000F74D0002E72D01F
:1032D000032084F85D00C4F860A0C4F83890A68785
:1032E000E687C4F840A0A4F844A0A4F846A0C4F817
:1032F00050A0C4F84CA0A068B0F5004F09D12068D8
:10330000016821F0400101602068016841F48041BA
:10331000016020680168490603D4016841F040015A
:103320000160E068B0F5E06F606823D908B1012E54
:103330001CD1A06B21680088C86006E02068816805
:10334000890709D5A16B0988C160A06B801CA063A7
:10335000E08F401EE08709E0FEF762FBA0EB08006B
:10336000A84202D3681C01D046E0ADB3E08F00282C
:10337000E4D136E008B1012E30D1E08F0128A06BF6
:1033800003D921680088C8600FE0216800780873BD
:1033900014E0E08722E020688168890714D5E18F76
:1033A0000129A16B08D90988C160A06B801CA063AA
:1033B000E08F801EEDE727E009780173A06B401CC9
:1033C000A063E08F401EE4E7FEF72AFBA0EB0800B5
:1033D000A84202D3681C01D00EE06DB1E08F002836
:1033E000D9D142462946204602F074F908B120207E
:1033F0002066A06810B105E0032706E02068C168D8
:1034000080680090206E00B1012784F85DB084F8D8
:103410005CA0384655E718BCBDE8E08F2DE9F05FA9
:10342000044690F85C0000270A9E1D4692468B4693
:103430004FF0010901280ED0012084F85C00FEF74E
:10344000EFFA804694F85D00616801280CD0B1F570
:10345000827F07D102E0022000F011B9A16809B90A
:10346000042801D0022700E1BBF1000F24D0BAF1FB
:10347000000F21D005B394F85D00042802D0052088
:1034800084F85D0000202066C4F840A0A4F84650EF
:10349000A4F84450C4F838B0E587A587E0642065F7
:1034A000E0684FF4E061884201D8012D06D9206818
:1034B000426822F4805205E00127D6E02068426885
:1034C00042F48052426020680268520603D40268C7
:1034D00042F040020260E0688842606845D908B165
:1034E000012D3AD1A06B21680088C860A06B801CB8
:1034F000A063E08F401EE0872FE020688168890785
:103500000FD5E18F69B1B9F1010F0AD1A16B09881B
:10351000C160A06B801CA063E08F401EE0874FF06D
:10352000000920688168C9070FD0B4F8461061B15E
:10353000C068216C0880206C801C2064B4F84600B0
:10354000401EA4F846004FF00109FEF769FAA0EB0F
:103550000800B04201D3701C75D1E08F0028CCD197
:10356000B4F846000028C8D176E008B1012D6CD12E
:10357000E08F0128A06B08D921680088C860A06B83
:10358000801CA063E08F801E07E02168007808732C
:10359000A06B401CA063E08F401EE08755E02068D0
:1035A000816889071AD5E18FC1B1B9F1010F15D131
:1035B000E18F0129A16B07D90988C160A06B801C2C
:1035C000A063E08F801E06E009780173A06B401CA9
:1035D000A063E08F401EE0874FF0000920688168FB
:1035E000C90728D0B4F8461029B3B4F84610012909
:1035F00014D9C068216C0880206C801C2064B4F849
:103600004600801EA4F84600B4F84600012810D8F1
:103610002068416841F4805141600AE0007B216CE0
:103620000870206C401C2064B4F84600401EA4F8CA
:1036300046004FF00109FEF7F3F9A0EB0800B04295
:1036400002D3701C01D018E0BEB1E08F0028A6D1D3
:10365000B4F846000028A2D142463146204602F086
:1036600039F810B1012720202066012084F85D0080
:10367000002084F85C003846EEE60327F5E730BC0E
:10368000BDE8C09F704770477047000030B590F8A4
:103690003C20012A37D0012280F83C20CA688C687F
:1036A00022F4407222434C6822F4806222430C6868
:1036B00022F4006222430C6922F4805222434C69B6
:1036C00022F4005222438C6A22F4804222430C8B63
:1036D00022F4702242EA04420C4D04680023AC42FA
:1036E0000CD18D8C22F4700242EA0552CD6922F091
:1036F00080722A43096A22F000720A43626480F8E9
:103700003C30002030BD022030BD0000002C0140C4
:10371000F0B590F83C20012A29D0012480F83C40E3
:10372000022280F83D2003685A689D68114EB3421A
:1037300003D122F470074A683A4322F070070A68FE
:103740003A435A600268B24205D0B2F1804F02D0CB
:10375000094B9A4204D1896825F08003194391608E
:1037600080F83D40002180F83C100846F0BD022062
:10377000F0BD0000002C01400040014010B50400E5
:1037800003D094F83D0010B107E0012010BD0020E7
:1037900084F83C00204600F023F8022084F83D0025
:1037A000211D206802F0D6FA012084F8480084F830
:1037B0003E0084F83F0084F8400084F8410084F81B
:1037C000420084F8430084F8440084F8450084F8FB
:1037D000460084F8470084F83D00002010BD00003A
:1037E00008B500680B49884212D10B48816D41F041
:1037F00020018165806D002200F0200000901146BC
:103800003720FEF7EFFBBDE808403720FEF7DCBBB2
:1038100008BD0000001400400010024090F83D1068
:10382000012901D001207047022180F83D10016874
:10383000CA6842F00102CA6000680B49884205D09C
:10384000B0F1804F02D00949884207D18168084A07
:103850001140062906D0B1F5803F03D0016841F040
:103860000101016000207047002C01400040014030
:1038700007000100704770B50446006801694FF009
:103880000005C943890715D4C168C943890711D404
:10389000E91E0161012020772068806980072046A9
:1038A00002D0FFF7E7FF04E000F0DEF8204600F06A
:1038B000BBF9257720680169C943490717D4C16856
:1038C000C943490713D46FF0040101610220207736
:1038D0002068806910F4407F204602D0FFF7CAFFBD
:1038E00004E000F0C1F8204600F09EF9257720683A
:1038F0000169C943090716D4C168C943090712D42D
:103900006FF008010161042020772068C0698007FA
:10391000204602D0FFF7AEFF04E000F0A5F82046F5
:1039200000F082F9257720680169C943C90617D4D8
:10393000C168C943C90613D46FF0100101610820A2
:1039400020772068C06910F4407F204602D0FFF73E
:1039500091FF04E000F088F8204600F065F9257733
:1039600020680169C943C90708D1C168C943C907AB
:1039700004D1891E0161204600F0C0F92068016968
:10398000C943090609D4C168C943090605D46FF0C3
:10399000800101612046FFF776FE20680169C94376
:1039A000C90509D4C168C943090605D46FF48071FB
:1039B00001612046FFF766FE20680169C943490698
:1039C00009D4C168C943490605D46FF040010161BB
:1039D000204600F09DF920680169C94389060BD48F
:1039E000C168C943890607D46FF0200101612046F0
:1039F000BDE87040FFF748BE70BD000070B586B0EE
:103A0000044614216846FCF7CDFC154E25680022BB
:103A10001449022401234FF09040B54209D1CD6CE6
:103A200045F00105CD64C96C01F001010591190251
:103A30000CE0B5F1804F11D1CD6C45F00105CD649E
:103A4000C96C01F0010105914FF400410091CDE9ED
:103A500001426946CDE90323FDF7F8FE06B070BDCB
:103A6000002C014000100240704770B5044690F8E9
:103A70003C000D4601280BD0012084F83C000C2AA4
:103A800045D007DC5AB1042A1BD0082A78D12CE093
:103A9000022070BD102A4ED0142A71D15DE020683A
:103AA00002F09CF92068816941F008018161206879
:103AB000816921F004018161206881692A691143CB
:103AC00011E0206802F0C6F92068816941F40061C4
:103AD00081612068816921F4806181612068816948
:103AE0002A6941EA022181614AE0206802F0EEF988
:103AF0002068C16941F00801C1612068C16921F0F5
:103B00000401C1612068C1692A69114311E020687C
:103B100002F016FA2068C16941F40061C1612068B1
:103B2000C16921F48061C1612068C1692A6941EAE3
:103B30000221C16124E0206802F032FA2068416D60
:103B400041F0080141652068416D21F004014165A3
:103B50002068416D2A69114311E0206802F04EFA95
:103B60002068416D41F4006141652068416D21F498
:103B7000806141652068416D2A6941EA0221416501
:103B8000002084F83C0070BD10B5040003D094F808
:103B90003D0010B107E0012010BD002084F83C007A
:103BA000204600F023F8022084F83D00211D206803
:103BB00002F0D0F8012084F8480084F83E0084F830
:103BC0003F0084F8400084F8410084F8420084F803
:103BD000430084F8440084F8450084F8460084F8E3
:103BE000470084F83D00002010BD000008B50C4AD5
:103BF00001680C48914207D1016E41F400610166F1
:103C0000006E00F4006009E0B1F1804F07D1816DD2
:103C100041F001018165806D00F00100009008BD58
:103C2000002C0140001002407047000010B504460F
:103C3000022269B1042912D0082917D00C291CD0FE
:103C4000102921D094F84300012824D0012010BD70
:103C500094F83E000128F9D184F83E201DE094F844
:103C60003F000128F2D184F83F2016E094F840008C
:103C70000128EBD184F840200FE094F8410001289E
:103C8000E4D184F8412008E094F842000128DDD115
:103C900084F8422001E084F843200122206802F0E9
:103CA0008FF812492068124A884204D0904202D00C
:103CB000104B984203D1436C43F4004343642068A3
:103CC000884204D0B0F1804F01D0904207D1816882
:103CD000094A1140062906D0B1F5803F03D001689A
:103CE00041F001010160002010BD0000002C0140E6
:103CF0000040014000440140070001000068034902
:103D0000884201D1FEF7F8B870470000001000406B
:103D10007047704770B5416F0446856F00688268D0
:103D20004FF01006120612D5212910D1816821F01A
:103D300080018160A06E38B1FDF724FC20B1A06E37
:103D4000FDF76CFC20281BD0204602F08DFA20687D
:103D50008168490612D5222D10D1816821F04001D9
:103D60008160E06E38B1FDF70DFC20B1E06EFDF72B
:103D700055FC202804D0204602F067FA002070BDD0
:103D8000E667032070BD70472DE9F04102680446E4
:103D9000D0691168936840F60F0528424FF000057E
:103DA00005D186067BD58E0679D5216E88E04D4FEC
:103DB00003F001060F40374371D0C70707D0CF0586
:103DC00005D501271762E26F42F00102E267820720
:103DD00008D5DA0706D0276802223A62E26F42F07D
:103DE0000402E267420708D5DA0706D023680422F6
:103DF0001A62E26F42F00202E26702070AD501F09E
:103E00002002324306D0236808221A62E26F42F091
:103E10000802E267020509D54A0107D523684FF475
:103E200000621A62E26F42F02002E267E26F002A4B
:103E30002ED0800605D5880603D5216E09B120460F
:103E40008847E06F21688968490602D410F0280F7E
:103E500020D0204602F0F9F920688168490614D57F
:103E6000816821F040018160E06E70B11E4981637C
:103E7000E06EFDF7ACFB00280AD0E06E816B00E03D
:103E80002046BDE8F041084709E02046FFF77BFFE8
:103E9000BDE8F0812046FFF776FFE567F8E7C60248
:103EA00009D55B0207D54FF4801010622046BDE8AB
:103EB000F041FFF72EBF030605D50B0603D5616E53
:103EC0000029DDD1E4E74006E2D54806E0D51168D7
:103ED000204621F04001116020216167656600F0F5
:103EE000A0F9D5E720010004A961000810B504007D
:103EF00002D0606F10B107E0012010BD002084F8EF
:103F00007000204600F026F82420606720680168D1
:103F100021F001010160204602F0AEF90128ECD049
:103F2000606A10B1204602F0AFF82068416821F4C1
:103F3000904141602068816821F02A0181602068F9
:103F4000016841F0010101602046BDE8104002F027
:103F5000FFB800002DE9F04387B0044614216846FD
:103F6000FCF720FADFF850C12668544B03200721E4
:103F7000002502274FF090424FF010094FF08008C3
:103F8000664547D11E6E46F480461E661E6E06F4D8
:103F900080460596DE6C46F00106DE64DB6C029519
:103FA00003F001030593CDE903014302CDE9003796
:103FB00069461046FDF74AFC424E41483060C6E96A
:103FC0000175C6E903587561B561F5613046356222
:103FD000FDF784FB08B1FCF739FFE666B462394EA1
:103FE000374848361438C6E903587561B561F5613C
:103FF000356286E881023046FDF770FB08B1FCF7B8
:1040000025FFA666002201212520B462FDF7EAFF04
:1040100025204CE0DFF8B0C066454AD19E6D46F4DD
:1040200000369E659E6D06F400360596DE6C46F001
:104030000106DE64DB6C029503F001030593CDE914
:1040400003010C23CDE9003769461046FDF7FEFB5E
:104050001C4E1B48903614303060C6E90175C6E925
:1040600003587561B561F56130463562FDF736FB81
:1040700008B1FCF7EBFEE666B462124E1048D83683
:104080002830C6E903587561B561F561356286E887
:1040900081023046FDF722FB08B1FCF7D7FEA66689
:1040A000002202212620B462FDF79CFF2620FDF7A6
:1040B0008BFF07B0BDE8F0830038014000100240DC
:1040C00058000240B83A00200044004070B5044651
:1040D000806F20283FD149B342B394F87000012883
:1040E00039D0012084F870006165A4F858200025BB
:1040F000E5672220A067E06ED0B11849C162E16E89
:10410000174813460863E16E16484863E06E8563FE
:10411000666D216832462431E06EFDF73FFB38B111
:104120001020E06784F8705020206067012070BD87
:1041300084F870502068016841F480710160206843
:10414000816841F0010181602068816841F040018F
:104150008160002070BD022070BD00000562000873
:1041600041620008BD610008704770472DE9F843BF
:104170000446406F1F4616460D4620284FD1CDB14C
:10418000C6B194F87000012849D0012084F870006D
:104190004FF00008C4F87C8021206067FDF740FCE8
:1041A000A4F850608146A4F85260A068B0F5805F22
:1041B00003D004E00120BDE8F883206928B12E4631
:1041C0005FF0000584F8708010E00026FAE7802197
:1041D000204602F053F9B8B9C6B116F8010B2168B0
:1041E0000885B4F85200401EA4F85200B4F85200FA
:1041F0004B464FF0000200970028E8D14FF04001F5
:10420000204602F03BF930B10320D4E735F8020B29
:10421000C0F30800E3E7202060670020CBE702201E
:10422000C9E77047FEE701688A69D243920701D463
:1042300000228A6200688169C943C90703D0816985
:1042400041F00101816170472DE9F04104460068A9
:1042500090460E468069C043C00633D4002520270F
:1042600020688069C043800615D5701CF8D0FDF722
:10427000D7FBA0EB0800B04201D8002EF0D154F8D3
:10428000440F40F0200044F804096770A5702570C1
:104290000120BDE8F08121681020C8612068C76155
:1042A0002046FFF7C0FF54F8440B4168064A11400E
:1042B0004160206840F0040044F820096777A57742
:1042C0002577E5E70020E4E700E800FE2DE9F84364
:1042D00004461646DDE9089714489846DAB200907D
:1042E0000023204600F056F83A464946204600F0A2
:1042F000B9F8B8B9F5B2B8F1010F08D02168300AA1
:1043000088623A464946204600F0ACF850B9206829
:1043100085624B46002240212046009700F050F86D
:10432000002800D00120BDE8F883000000200080B4
:104330002DE9F8430446164615489846DDE90897E6
:10434000DAB2C3020090204600F024F83A4649460B
:10435000204600F087F8B8B9F5B2B8F1010F08D0DF
:104360002168300A88623A464946204600F07AF8C9
:1043700050B9206885624B46002280212046009774
:1043800000F01EF8002800D00120BDE8F8830000EE
:1043900000200080F0B50568059C68684FF48066D1
:1043A000064FC1F3090106EA545641EA02413E4371
:1043B0001943B043214308436860F0BDFF63FF0326
:1043C0002DE9F0411D4617460E460446DDF81880DB
:1043D00008E0681C06D0FDF723FBA0EB0800A8420C
:1043E0000BD855B12068806936EA000012D0002051
:1043F000B842EED00020BDE8F08154F8440F40F000
:10440000200044F80409202060700020A070207073
:104410000120F0E70120EBE770B516460D46044693
:104420000DE0324629462046FFF70EFF08B1012075
:1044300070BDFDF7F5FA801BA84207D835B120689A
:104440008069C0438006ECD4002070BD54F8440F4E
:1044500040F0200044F80409202060700020A07083
:104460002070E4E770B516460D4604460FE032466C
:1044700029462046FFF7E8FE08B1012070BD681C00
:1044800005D0FDF7CDFA801BA84207D835B12068CA
:104490008069C0438007EAD4002070BD54F8440FFF
:1044A00040F0200044F80409202060700020A07033
:1044B0002070E2E770B54FF09045002210212846A9
:1044C000FDF7A8FA012202212846FDF7A3FA4FF4CE
:1044D000800001F069F80B490B4C0122087DA074A3
:1044E000487DE06410212846FDF794FA002202215D
:1044F0002846FDF78FFAA27CE16CBDE8704003A06E
:1045000002F060B8701D00200C0000202020206CFC
:10451000696768745F68696768743A256420202059
:104520006C696768745F74696D653A25640D0A008B
:104530002DE9F04106461C4617460D462A2000F09C
:1045400059F9304600F04CF9384600F049F92B2073
:1045500000F050F95035A8B200F042F95034A0B242
:1045600000F03EF9BDE8F0412C2000F043B9000016
:104570002DE9FF5F93460099DDF83880A2EB010A30
:104580000AF1010087B20198181A401C1FFA80F93D
:104590004FEA4A0013F012F9002506462C4628E09F
:1045A0000198ABF1010120448AB283B281B2009834
:1045B000FFF7BEFF00200EE004FB0701401C38F8A7
:1045C000112080B2120A725518F81110A1EB0221C5
:1045D0007219AD1C5170B842EED34FF6FF7101EA6B
:1045E0004A020A2331460748FEF751FE0025641CA3
:1045F000A4B24C45D4D304B0304600F005B804F062
:1046000099BE00002830002030BCBDE8C05FFFF735
:10461000F6BF00002DE9F05F8146A2EB090B98463A
:1046200016460C464FEA4B00DDF828A013F0C6F8FA
:104630000746A8F1010083B2701E82B20025214610
:104640004846FFF775FF1AE04FEA1A21AAEB01224C
:104650004846D2B205E079557B19401C5A7080B2A9
:10466000AD1CB042F7D34FF6FF7101EA4B020A23AB
:1046700039460648FEF70BFE0025641CA4B24445EB
:10468000E2D3384600F004B804F054BE28300020CD
:1046900030BCBDE8C05FFFF7F7BF000030B58BB09E
:1046A000444904AC4C4DD1E90001CDE9080142A0D8
:1046B0000FC88DE80F0044A10FC984E80F004FF424
:1046C0000074002221462846FDF7A4F90A20FDF7D0
:1046D0009DF8012221462846FDF79CF90A20FDF7A6
:1046E00095F80A20FDF792F8112000F083F80C20CD
:1046F000FDF78CF8362000F07DF8C02015F09CFC0A
:104700003A2000F077F8052015F096FCB22000F072
:1047100071F80A23052208A93048FEF7B8FDB72032
:1047200000F068F8352015F087FCBB2000F062F837
:10473000192015F081FCC02000F05CF82C2015F049
:104740007BFCC22000F056F8012015F075FCC32058
:1047500000F050F8122015F06FFCC42000F04AF869
:10476000202015F069FCC62000F044F80F2015F059
:1047700063FCD02000F03EF8A42015F05DFCA120E1
:1047800015F05AFCE02000F035F80A230E226946A5
:104790001248FEF77CFD0A230F2204A90F48FEF7FA
:1047A00076FD212000F026F8292000F023F80BB038
:1047B00030BD000024AA0108D0040D11132B3F5472
:1047C0004C180D0B1F230000D0040C11132C3F4478
:1047D000512F1F1F202321000004004828300020F3
:1047E00010B50446000A00F01BF8E0B2BDE8104026
:1047F00000F016B870B5094D06464FF480740022DB
:1048000021462846FDF706F9304600F009F8214612
:104810002846BDE870400122FDF7FCB800040048BE
:1048200001B50A23012269460148FEF730FD08BDA3
:104830002830002010B5002824D0134C134901283B
:104840002278627002EB420201EB820206D002285B
:1048500006D0032806D0042806D00DE0527804E0E4
:10486000927802E0D27800E01279227002EB4202E4
:1048700001EB8201896888472178BDE8104004A0D7
:1048800001F0A0BE10BD0000241B0020681C02081F
:104890006E6F77696E6465783D25640D0A000000CF
:1048A00000EB8100006E00F0F84070478068C0F3B4
:1048B000C00070478068C0F380007047C06810F483
:1048C000406F01D00020704701207047042303EAA5
:1048D000D15310B518444369C1F3045107248C40E7
:1048E000A3438A401343436110BD00EB8100016E76
:1048F00021F0004111430166704700002DE9FE439D
:1049000009F02AF909F060F97D4C0021206207F0D6
:104910005BFE3C22F021A06010F06EF8B422F02182
:10492000A06810F0AAF8774800257649C57305728B
:10493000A06810F0E2F873483C2273493C30FBF762
:1049400018FD724E0A22306800906E48BDF80010C3
:1049500020F83E1F71680091BDF800104180694940
:104960003C314A830122CA86B1680091BDF800102B
:1049700041860021A0680FF035F83B220021E0605D
:104980000FF0B5F93221E0680FF0F0F91F224FF473
:10499000B471E0680FF0D6F95A49E0683C3110F084
:1049A000ACF86E221146E06810F067F80095D4E983
:1049B0000210002302220FF0EBFA0021E0680DF054
:1049C000EBFD60610FF0A4FE01464E483C227830BA
:1049D000FBF7CFFC4B494E48783101F1080748629C
:1049E0000095BDF800003883606910F086F8012159
:1049F00060690EF0A5FB47A160690EF0CFFB0023B4
:104A000000951A46194660690FF0C2FA01216069E3
:104A10000FF092FF0021E0680DF0BEFD20610FF065
:104A200077FE01463C2207F13400FBF7A2FCF06858
:104A30000090BDF80000A7F8540007F13401206988
:104A400010F05BF836A120690EF0A8FBE81E00907C
:104A5000D4E9040100230A220FF09AFA0121206907
:104A60000FF06AFF0021E0680DF096FD07F13401B8
:104A7000A06110F042F82BA1A0690EF08FFB03207B
:104A80000090D4E9051000230D220FF081FA0121D6
:104A9000A0690FF051FFD6E904010DF10408703749
:104AA000CDE901010021A0680DF076FD06461FA1A9
:104AB0000EF074FB38F815000023163000B2009099
:104AC0000D223046E1680FF063FA012130460FF005
:104AD00033FF0C49304647F82560B43110F00DF82B
:104AE0006D1C032DDEDB00F063FF002304220B218D
:104AF000124812F031F9E06100F0D4FE00F020B865
:104B00006C1C0020ACD600207C790020441E0208DA
:104B1000E01C0020303023464630303030203A232D
:104B2000303000002E303030000000002D2D3A2DA6
:104B30002D3A2D2D2E2D2D2D00000000A5580008FA
:104B400006BCBDE8F88310B580216B2000F096F814
:104B50006420FCF75BFE00216B2000F08FF803203F
:104B600000F057F8002000F04FF8322000F06EF807
:104B70000021382000F082F800216A2000F07EF841
:104B80000021232000F07AF88021372000F076F809
:104B9000752000F011F8682801D0012010BD012116
:104BA0006B2000F06BF800216C2000F067F83220D9
:104BB00000F04CF8002010BD1FB54FF0FF3301226C
:104BC00003A98DE80E0013460246D1210348FCF7E5
:104BD000DDFF9DF80C0004B010BD00006C2F00201C
:104BE0003EB54FF0FF34CDE90032012202EB400028
:104BF00013460A46014602940248FCF7C7FF00200C
:104C00003EBD00006C2F0020C006010E1C2000F0ED
:104C100035B8C006010E1B2000F030B8BC2801D307
:104C2000012110E0622801D302210CE02A2801D3DF
:104C3000032108E0142801D3042104E00A2801D349
:104C4000052100E006211A2000F018B810B504462E
:104C50004FF47A70844201D9044602E0042C00D259
:104C60000424B0FBF4F0401EC1B2192000F006F895
:104C70006008BDE81040FFF7D1BF000003B583B066
:104C80004FF0FF33012204A98DE80E0013460246BF
:104C9000D0210348FDF730F805B0002000BD00002A
:104CA0006C2F00203EB54000CDE900320A464FF09F
:104CB000FF340146029401230248FDF71DF800204D
:104CC0003EBD00006C2F002030B587B0182168462B
:104CD000FBF768FB184817490024C0E900148460FA
:104CE0000425C460C0E90445047644760121C1610D
:104CF00080F820408462C46280F83040446380F8C9
:104D00003840FCF7A3FA08B1FCF7A0F80B48009074
:104D10000620CDE901047F200594CDE9030569460D
:104D20000548FCF795F8002801D0FCF78FF807B08C
:104D300030BD000000000450082F00200080F03E2D
:104D4000194808B5816C41F001018164806C002232
:104D500000F00100009011460D20FDF743F90D20F1
:104D6000FDF732F9002211460E20FDF73BF90E2027
:104D7000FDF72AF9002211460F20FDF733F90F2025
:104D8000FDF722F9002211461020FDF72BF9102023
:104D9000FDF71AF9002211461120FDF723F9BDE8AD
:104DA00008401120FDF710B90010024010B5154A57
:104DB0000021154813F072FE144C124A00212063A2
:104DC0002432134813F06AFE0E4A60634832002111
:104DD000104813F063FE0B4AA063B43200210E4862
:104DE00013F05CFE074A6064903200210B4813F018
:104DF00055FE044A20646C320021094813F04EFE2F
:104E0000E06310BD74B60108FD0B0008040100202A
:104E1000D96F0108F10C00082D0A0008E15B0008B9
:104E2000C15A00082DE9F04186B014216846FBF70D
:104E3000B9FA4B48C16C41F00401C164C16C01F086
:104E400004010591C16C41F08001C164C16C01F0A5
:104E500080010591C16C41F00101C164C16C01F098
:104E600001010591C16C41F00201C164C06C3D4E6D
:104E700000F002004FF40054059000222146304615
:104E8000FCF7C8FD4FF09047002241F2020138467E
:104E9000FCF7C0FD012210213846FCF7BBFDDFF80E
:104EA000C88000224DF220314046FCF7B3FD0122BC
:104EB00021464046FCF7AEFD0125CDE90045002422
:104EC0000294694630460394FCF7C0FC274E02204A
:104ED0000095CDE9016069463846FCF7B7FC41F220
:104EE00012000090CDE90154694638460394FCF75E
:104EF000ADFC4FF4E040CDE90005CDE90254694630
:104F00004046FCF7A3FC48F220300090CDE9015464
:104F1000694640460394FCF799FCE802CDE9000697
:104F2000694602943846FCF791FC0820CDE900045C
:104F3000694640460294FCF789FC002203210620C2
:104F4000FDF750F80620FDF73FF800220321282046
:104F5000FDF748F82820FDF737F806B0BDE8F081E6
:104F60000010024000080048000400480000111032
:104F7000134810B511490160124941600021012216
:104F8000C0E90212016141618161C1610162FCF706
:104F9000A1FD08B1FBF75AFF00210948FCF746FDC7
:104FA00008B1FBF753FF00210548FCF76AFD002814
:104FB00003D0BDE81040FBF749BF10BD00540040CE
:104FC0006C2F002091297000134810B51149016021
:104FD0001249416000210122C0E9021201614161D0
:104FE0008161C1610162FCF775FD08B1FBF72EFF1D
:104FF00000210948FCF71AFD08B1FBF727FF002143
:105000000548FCF73EFD002803D0BDE81040FBF743
:105010001DBF10BD00580040B82F0020EC9C901020
:1050200010B590B014210BA8FBF7BCF900242C217B
:105030006846FBF7B7F90B480949C0E900147F211E
:105040008160FF21C0E9031444618461C461FDF7FC
:105050005FFE002801D0FBF7F9FE10B010BD000084
:105060000028004004300020124810B510490160AB
:105070004FF48271416000214FF4E062C0E90212F6
:1050800002220261012242615202C0E9062101624C
:1050900007224162C0E90A1201634163FDF771FF13
:1050A000002803D0BDE81040FBF7D0BE10BD0000C3
:1050B000003001402830002010B596B00024129432
:1050C00013941C210BA81494FBF76CF92C2168464F
:1050D000FBF768F92348224901606321C0E9011404
:1050E00040F2F311C0E9031444618461FEF74CFD02
:1050F00008B1FBF7ABFE1294139412A9194814944B
:10510000FEF706FB08B1FBF7A1FE6020CDE90B041A
:105110000D940E940F94109400220BA91148119431
:10512000FEF7A3FC08B1FBF791FE00944FF400508A
:10513000CDE9044001940294039400030694CDE960
:1051400007400994694607480A94FEF79FFA08B198
:10515000FBF77CFE0348FEF751FC16B010BD0000C3
:10516000002C0140D430002010B58AB000240794F0
:1051700008941C2168460994FBF714F915484FF070
:10518000804101606321C0E9011440F2F311C0E9DC
:1051900003148461FEF7F8FC08B1FBF757FE07948F
:1051A00007A90C480994FEF7B3FA08B1FBF74EFEC5
:1051B0006020CDE900040294002269460548049469
:1051C000FEF753FC08B1FBF741FE0248FEF716FC60
:1051D0000AB010BD203100200D4810B50B49016008
:1051E0004FF4E1314160002181600C22C160C0E9CF
:1051F00004128161C16101624162FEF777FE0028FD
:1052000003D0BDE81040FBF721BE10BD00380140BF
:10521000B83900200D4810B50B4901604FF4E13159
:105220004160002181600C22C160C0E904128161EB
:10523000C16101624162FEF759FE002803D0BDE85A
:105240001040FBF703BE10BD00440040383A002078
:10525000FEE700001FB50C4600214B1E0391022201
:1052600003A98DE80E000246012380210C48FCF7BB
:105270008DFC68B1012804D0022804D0032807D18E
:1052800003E008A002E00AA000E00CA001F09AF9F7
:105290009DF80D009DF80C1000EB012020801FBD33
:1052A000B82F0020494943B4EDCEF3200D0A000089
:1052B000494943C3A6C2B5200D0A0000494943B37A
:1052C000ACCAB1200D0A0000704700002DE9F04182
:1052D000444C05468846E0680026810728680DD0C2
:1052E000E16801F00301814216D1A8B1E068696864
:1052F000C0F30210401C88420ED120E0012804D0E7
:10530000022805D0032807D108E02168890701E0B9
:1053100021684905002907DB01265FE02168890330
:1053200002D421684903F5E7E1686A686FF00F036A
:1053300021F0730103EB021211430143E160206885
:1053400020F080602060FCF76BFB074605E000BFA3
:10535000FCF766FBC01B022837D820680001F7D491
:10536000B8F1000F18D0B8F1010F1DD0287D4FF013
:105370007E41400801EB4060A96840EA01202169B4
:10538000194A114008432061206840F08060206085
:10539000FCF746FB07461AE0A868297B000240EAB2
:1053A000C1602169114AECE7288A1149400801EBE4
:1053B0004050A96840EA012021690E4AE1E700BF98
:1053C000FCF72EFBC01B022801D9032606E020684B
:1053D0000001F5D52069A969084320613046BDE880
:1053E000F081000000100240FF80FFF9FF80FF07FE
:1053F0000000E0FFFF809FFFF8B51C4D064600242B
:10540000A86DC00002D5FCF79DFE0DE0A86D40F030
:105410008050A865A86D00F080500090FCF792FEC7
:10542000A96D21F08051A965B0F5007F04D0802ED0
:1054300007D94FF003040AE0802E08D9A02E01D826
:1054400004E001D1022402E0702E00D101240848BA
:10545000016821F0070121430160006800F00700A6
:10546000A04201D00120F8BD0020F8BD001002408C
:105470000020024000B585B014216846FAF792FF7B
:10548000002269460C48FDF719FC9DF802309DF892
:1054900001209DF8001009A001F094F89DF800008B
:1054A00028B99DF80100012801D10B490870024874
:1054B000FDF7B6FB05B000BD04300020BDF8C8EB19
:1054C000C1CB525443D6D0B6CF203A2025642025F4
:1054D000642025640D0A000054010020010901EB3D
:1054E000810100F00F0000EB4100C0B270470022C4
:1054F000014602E00A39C9B2521C0A29FAD2100741
:1055000041EA1060704700002DE9F0410446006850
:105510000025C168490617D4691EC160FCF780FAEE
:1055200006464FF47A78032708E000BFFCF778FAC4
:10553000801B404502D9032584F821702068C0688B
:10554000400601D4032DF1D12846BDE8F0810000CA
:105550002DE9F041064613480025016821F080013D
:105560000160041F20684FF00307800607D430460F
:10557000FDF7ECFC90B186F8217003250EE0206861
:1055800020F0200020603046FDF7E0FC10B186F8E6
:1055900021700325206840F0200020602846BDE8E7
:1055A000F08100000C28004038B500210091010C6A
:1055B0000212A2EB01228DF80010A0EB01408DF841
:1055C0000120A0EB0220134C8DF80200FBF72EFB0C
:1055D0004FF09045002210212846FCF71BFA642367
:1055E00001220D490D48FDF752FE6423032269464E
:1055F0000A48FDF74CFE64234FF4805221460748C9
:10560000FDF77EFD012210212846FCF703FA204613
:1056100038BD0000701D002005000020283000204B
:1056200010B54FF09044002210212046FCF7F2F90B
:105630006423012208490948FDF729FE064964232D
:105640000522891D0548FDF75BFD20460122BDE8C6
:1056500010401021FCF7DEB90000002028300020A7
:105660002DE9F843044640684FF482761546894692
:105670004FF400474FF48068B04209D1A068B842A7
:1056800001D0404504D12068016821F0400101604B
:105690004B46002280212046009500F0A7F880B9F3
:1056A0006068B04214D1A068B84201D040450FD123
:1056B0004B4600224FF4C0612046009500F02EF8C2
:1056C00030B1206E40F0200020660320BDE8F88352
:1056D0000020FBE7F8B515460E460B46009204463F
:1056E00000224FF4C05100F019F888B93346002267
:1056F00080212046009500F079F848B93346002211
:105700004FF4C0612046009500F008F8002804D04E
:10571000206E40F0200020660320F8BD2DE9F84FF0
:10572000994617460E4604460A9DFCF779F9411B37
:10573000A9EB0105FCF774F9804629484FF4C06ACB
:105740000068C0EBC00000EB8000000D68430090D3
:105750003FE0564501D107B9007BB9F1FF3F38D092
:10576000FCF75EF9A0EB0800A84203D215B100983F
:1057700060B32CE02068416821F0E001416060687E
:10578000B0F5827F0BD1A068B0F5004F02D0B0F524
:10579000806F04D12068016821F040010160A06A97
:1057A000B0F5005F09D12068016821F40051016063
:1057B0002068016841F400510160012084F85D0017
:1057C000002084F85C00032000F00CB80025401E87
:1057D0000090206881683140B942BAD10020F3E7D7
:1057E0006401002018BCBDE8E08F00002DE9F843FB
:1057F0001E46914688460446089DFCF711F9401B59
:10580000351AFCF70DF9074625480068C0F3CB3080
:10581000684338E0701C37D0FCF702F9C01BA8427F
:1058200003D215B1009860B32CE02068416821F0E4
:10583000E00141606068B0F5827F0BD1A068B0F5EF
:10584000004F02D0B0F5806F04D12068016821F0CC
:1058500040010160A06AB0F5005F09D120680168CD
:1058600021F4005101602068016841F40051016099
:10587000012084F85D00002084F85C000320BDE86E
:10588000F8830025401E00902068816838EA0100F6
:1058900004D000214945BDD10020F0E70121F9E7FE
:1058A000640100202DE9F04128482949642200685C
:1058B000B0FBF1F1B1FBF2F302FB13124EF66021E3
:1058C000B0FBF1F13C23B1FBF3F403FB14184FF4EC
:1058D0007A71B0FBF1F4B4FBF3F503FB1546B0FBB2
:1058E000F1F31C4C01FB13076078411C6170142814
:1058F00025D919A1A01C00F075FEA01C00258570FB
:105900003346424616A1273000F06CFE04F1290010
:105910003A46457115A1401F00F064FE04F12400D1
:1059200031B20571E0680EF021FAA11C20690DF07A
:105930001AFC04F1290160690DF015FC6570A0697D
:10594000BDE8F041034924310DF00DBCBC0100203D
:1059500080EE36006C1C0020253032640000000010
:10596000253032643A253032640000002E25303371
:10597000640000000A4810B5016871B1094C207834
:10598000032809D20849094A096842F8201000F0A2
:105990000FF82078401C207010BD0121016010BD5F
:1059A000C00100206C1C0020BC010020A8D70020F2
:1059B0002DE9FC411F4C1E481D4D21780C3D50F82F
:1059C000210070B31C496422B0FBF1F1B1FBF2F38A
:1059D00002FB13124EF66021B0FBF1F13C26B1FB45
:1059E000F6F306FB13134FF47A71B0FBF1F7B7FB34
:1059F000F6FC06FB1C76B0FBF1F701FB1700CDE9C6
:105A000000600EA105F1180000F0ECFD05F1180191
:105A100000204873207855F82000BDE8FC410DF0C7
:105A2000A2BB55F82100BDE8FC4109A10DF0B6BBB1
:105A3000A8D700206C1C002080EE36002E253032C6
:105A4000643A2532643A2532643A25336400000012
:105A50002D2D3A2D2D3A2D2D2E2D2D2D000000000F
:105A60000F4910B5002008600E49104A08600E4921
:105A70000870014642F82100491C0329FADB0B4C4F
:105A80000BA10C3C20680DF089FB09A160680DF0AA
:105A900085FBA068BDE8104005A10DF07FBB0000AC
:105AA000BC010020C00100206C1C0020A8D70020F1
:105AB0002D2D3A2D2D3A2D2D2E2D2D2D00000000AF
:105AC0000026DFF8BC80DFF8BC90DFF8BCA0DFF870
:105AD000BCB02F4C4FEA060503F07EFFA16A884256
